:103800000C94341C0C94511C0C94511C0C94511CA1
:103810000C94511C0C94511C0C94511C0C94511C74
:103820000C94511C0C94511C0C94511C0C94511C64
:103830000C94511C0C94511C0C94511C0C94511C54
:103840000C94511C0C94511C0C94511C0C94511C44
:103850000C94511C0C94511C0C94511C0C94511C34
:103860000C94511C0C94511C11241FBECFEFD4E0BA
:10387000DEBFCDBF11E0A0E0B1E0E2E9FFE302C0AE
:1038800005900D92A230B107D9F712E0A2E0B1E0A5
:1038900001C01D92AD30B107E1F70E94A51D0C9447
:1038A000C81F0C94001C982F8091C00085FFFCCF8E
:1038B0009093C60008951F93282F992787FD909510
:1038C000807F907095958795959587959595879527
:1038D000959587958A304CF0982F995A822F8F7042
:1038E0008A304CF0182F195A08C0982F905D822FFB
:1038F0008F708A30BCF7182F105D892F0E94531CDF
:10390000812F0E94531C1F910895EF92FF920F93F5
:103910001F932898EE24FF2487018091C00087FD23
:1039200017C00894E11CF11C011D111D81E2E8166D
:1039300081EAF80687E0080780E0180770F3E09155
:103940000401F091050109958091C00087FFE9CF3E
:10395000289A8091C600992787FD90951F910F9115
:10396000FF90EF9008950F931F930E94851C182FCE
:103970000E94531C0E94851C082F0E94531C113664
:103980002CF0175501363CF0075508C01033D4F31E
:1039900010530136CCF700330CF000531295107F12
:1039A000100F812F992787FD90951F910F910895F2
:1039B000282F882351F090E08091C00087FFFCCF32
:1039C0008091C6009F5F2917B9F708951F93182F9C
:1039D0000E94851C803269F0809103018F5F809383
:1039E0000301853079F4E0910401F0910501099516
:1039F00009C084E10E94531C812F0E94531C80E166
:103A00000E94531C1F9108950E94851C803271F002
:103A1000809103018F5F80930301853009F0089541
:103A2000E0910401F09105010995089584E10E9457
:103A3000531C80E10E94531C0895CF93DF93CDB7B0
:103A4000DEB724970FB6F894DEBF0FBECDBF382F78
:103A5000882309F434E019821A821B821C8289812E
:103A60009A81AB81BC8180509147A240B040A0F4C4
:103A700089819A81AB81BC810196A11DB11D898389
:103A80009A83AB83BC8389819A81AB81BC8180504E
:103A90009147A240B04060F310920A02332309F428
:103AA0004BC020E0289A19821A821B821C828981CD
:103AB0009A81AB81BC81885B9242A040B040A0F467
:103AC00089819A81AB81BC810196A11DB11D898339
:103AD0009A83AB83BC8389819A81AB81BC81885BEB
:103AE0009242A040B04060F3289819821A821B824B
:103AF0001C8289819A81AB81BC8180509A4FA04001
:103B0000B040A0F489819A81AB81BC810196A11D4E
:103B1000B11D89839A83AB83BC8389819A81AB81F0
:103B2000BC8180509A4FA040B04060F32F5F3217A5
:103B300009F0B8CF30930A0224960FB6F894DEBF8E
:103B40000FBECDBFDF91CF9108950F931F93CF93F9
:103B5000DF9394B714BE8091600088618093600009
:103B60001092600091FF8EC183E38093C400109295
:103B7000C50088E18093C10086E08093C200509820
:103B8000589A209A84E00E941D1D81E00E941D1D0C
:103B90000E94851C8033B9F18133C1F1803409F46E
:103BA00055C0813409F45BC0823409F46AC085349D
:103BB00009F46DC0803539F1813509F4E1C08235F1
:103BC00011F1853509F4D1C0863509F4C7C08436B2
:103BD00009F463C0843709F4D9C0853709F43DC1BD
:103BE000863709F44AC0809103018F5F80930301F7
:103BF000853071F6E0910401F091050109950E946C
:103C0000851C803349F60E94041DC2CF0E94851C8A
:103C1000803249F784E10E94531C81E40E94531CC6
:103C200086E50E94531C82E50E94531C80E20E949C
:103C3000531C89E40E94531C83E50E94531C80E5B9
:103C40000E94531C80E10E94531CA2CF0E94851C3D
:103C50008638C8F20E94851C0E94041D99CF0E94DC
:103C6000851C803809F4F5C0813809F4EEC082382B
:103C700009F4E7C0883909F4E0C080E00E94E61C3E
:103C800087CF84E10E94D81C0E94041D81CF85E06B
:103C90000E94D81C0E94041D7BCF0E94851C80932B
:103CA00009020E94851C8093080280910C028E7F7D
:103CB00080930C020E94851C853429F480910C02AB
:103CC000816080930C028091080290910902892BF7
:103CD00089F0C0E0D0E008E011E00E94851CF80106
:103CE00081938F0121968091080290910902C81753
:103CF000D90798F30E94851C803209F074CF809117
:103D00000C0280FFC5C06091080270910902611524
:103D10007105E9F040910601509107019A01E0E038
:103D2000F0E0A8E0B1E0F999FECF32BD21BD8D9160
:103D300080BDFA9AF99A31962F5F3F4FE617F70741
:103D400091F7460F571F509307014093060184E1F6
:103D50000E94531C80E10E94531C1ACF84E00E94F1
:103D6000D81C80E00E94E61C13CF0E94851C809323
:103D700006010E94851C809307010E94041D08CF44
:103D80000E94041D88E080936000FFCF0E94851C84
:103D9000809309020E94851C809308020E94851C62
:103DA000853409F4E3C080910C028E7F80930C026D
:103DB0008091060190910701880F991F9093070148
:103DC000809306010E94851C803209F0E1CE84E1D7
:103DD0000E94531C8091080290910902009709F4F7
:103DE0004DC0C0E0D0E0E0910601F09107010BC0AA
:103DF00021FFC2C03196F0930701E093060121969E
:103E0000C817D907D8F520910C0220FFF1CFF999F6
:103E1000FECFF2BDE1BDF89A80B50E94531CE0913F
:103E20000601F09107013196F0930701E093060136
:103E30008091080290910902E2CF83E00E94E61C83
:103E4000A7CE80E10E94E61CA3CE81E00E94E61C82
:103E50009FCE82E00E94E61C9BCE0E94851C803291
:103E600009F0C1CE84E10E94531C8EE10E94531CD4
:103E700084E90E94531C86E00E94531C80E10E944A
:103E8000531C86CEE0910401F091050109956CCE9A
:103E90008091070187FD66C010920B028091060198
:103EA00090910701880F991F909307018093060155
:103EB0008091080280FF09C0809108029091090258
:103EC00001969093090280930802F894F999FECF25
:103ED0001127E0910601F0910701C8E0D1E080913F
:103EE000080290910902103091F40091570001707E
:103EF0000130D9F303E000935700E8950091570093
:103F000001700130D9F301E100935700E895099061
:103F100019900091570001700130D9F301E000932E
:103F20005700E8951395103498F011270091570029
:103F300001700130D9F305E000935700E895009136
:103F4000570001700130D9F301E100935700E89563
:103F50003296029709F0C7CF103011F00296E5CFE4
:103F60001124F5CE81E080930B0298CF80910C0252
:103F7000816080930C0226CF84910E94531C809113
:103F8000080290910902E0910601F091070132CFF9
:023F9000FFCF61
:023F92008000AD
:00000001FF
